:100000000C941A010C94AF010C94AF010C94AF0145
:100010000C94AF010C94AF010C94AF010C94AF01A0
:100020000C94AF010C94AF010C94AF010C94AF0190
:100030000C94AF010C94AF010C9464090C94AF01C3
:100040000C94AF010C94AF010C94AF010C94AF0170
:100050000C94750D0C94AF010C94AF010C94AF018E
:100060000C94240B0C94160A0C94AF010C94B40A53
:100070000C94AF010C94AF010C94AF010C94AF0140
:100080000C94AF010C94AF010C94AF010C94AF0130
:100090000C94AF010C94AF010C94AF010C94AF0120
:1000A0000C94AF010C94AF010C94AF010C945D3F24
:1000B0000C94AF010C94AF010C94AF010C94AF0100
:1000C0000C94AF010C94AF010C94AF010C94AF01F0
:1000D0000C94AF010C94AF010C94AF010C94AF01E0
:1000E0000C94AF010C94F0420C94AF010C94AF014E
:1000F0000C94AF010C94AF010C94AF010C94AF01C0
:100100000C94530B0C94AF010C94AF010C94AF0101
:100110000C94AF010C94AF010C94AF010C94AF019F
:100120000C94AF010C94AF010C94AF010C94AF018F
:100130000C94AF010C94AF010C94AF010C94AF017F
:100140000C94AF010C94AF010C94AF010C94AF016F
:100150000C94AF010C94AF010C94AF010C94AF015F
:100160000C94400A0C94AF010C94DC0A0C94AF017F
:100170000C94AF010C94AF010C94AF010C94AF013F
:100180000C94AF010C94AF010C94AF010C94AF012F
:100190000C94AF010C94AF010C94AF010C94AF011F
:1001A0000C94AF010C94AF010C94AF010C94AF010F
:1001B0000C94AF010C94AF010C94AF010C94AF01FF
:1001C0000C94AF010C94AF010C94AF010C94AF01EF
:1001D0000C94AF010C94AF010C943F4B0C94AF0105
:1001E0000C94AF010C94AF010C94AF010C94AF01CF
:1001F0000C94AF01F72BF02BE92BD32BBC2BB22B9C
:10020000A82B9E2B972B902B802B792B722B6B2B53
:10021000642B4E2B4E2B4E2B4E2B4E2B4E2B4E2B00
:100220004E2B4E2B4E2B4E2B4E2B4E2B4E2B692BEB
:10023000692B692B11241FBECFEFDFE3DEBFCDBFDB
:1002400000E00CBF18BE19BE1ABE1BBE80E060E005
:1002500040E00E94B2088091500088608093500076
:1002600080E060E00E947D088091510083FFFCCF18
:1002700083E00E94950881E00E94C20880E060E06F
:1002800048E021E00E94CC088FEFE0E2F7E08183B4
:10029000E0EEF6E0818380E594E064E220E030E087
:1002A00040E050E002E00E94D20884E594E064E27D
:1002B00020E030E048E050E007E00E94D208809162
:1002C00000018F778093000180910001806480930A
:1002D0000001809100018F7B8093000180910001DB
:1002E00080688093000180E496E060E140E051E0A6
:1002F0000E942C0980E496E060E240E051E00E9418
:100300002C0980E496E060E840E051E00E942C096E
:10031000E0ECF8E08EED8093C00880EC828381E011
:10032000818380E1E0E4F6E0858312E4A0E0B0E4BC
:10033000E2E9FCE900E00BBF02C007900D92A43A8D
:10034000B107D9F71BBE10EBA4EAB2E401C01D92BD
:10035000A830B107E1F70E94262C0C94474E0C946C
:100360000000EF92FF920F931F937B018C0120E01E
:1003700030E040E05FE40E942D0588238CF0C80146
:10038000B70120E030E040E05FE40E9429030E94D2
:10039000BB059B01AC01205030404040504806C096
:1003A000C801B7010E94BB059B01AC01B901CA019C
:1003B0001F910F91FF90EF900895A0E0B0E0E3EE61
:1003C000F1E00C94D24DDC012B01FA019C919230AA
:1003D00008F439C1EB018881823008F433C19430CC
:1003E00069F4843009F02FC111969C91119789818D
:1003F000981709F428C1A8E3B0E425C1843009F4B2
:1004000021C18230A9F4923009F01DC19A01AD01D9
:1004100088E0EA010990AE01E90109929E0181504C
:10042000C1F7E201898111969C918923818308C1DA
:10043000923009F407C112962D903C901397EB016E
:100440008A819B811496AD90BD90CD90DC901797DA
:10045000EC80FD800E811F819101281B390BB901B1
:1004600037FF04C066277727621B730B6032710564
:100470000CF061C0121613066CF537014801062E08
:1004800004C096948794779467940A94D2F721E0F5
:1004900030E040E050E004C0220F331F441F551FDE
:1004A0006A95D2F721503040404050402E213F21E4
:1004B00040235123211531054105510521F021E04B
:1004C00030E040E050E079018A01E628F728082969
:1004D00019293CC0232BD1F1260E371E35014601C8
:1004E000062E04C096948794779467940A94D2F762
:1004F00021E030E040E050E004C0220F331F441FF1
:10050000551F6A95D2F721503040404050402A2173
:100510003B214C215D21211531054105510521F07B
:1005200021E030E040E050E059016A01A628B728F8
:10053000C828D9280BC0821593052CF01C01AA24C9
:10054000BB24650103C0EE24FF24870111969C9112
:10055000D20111968C91981709F445C0992339F06E
:10056000A80197012A193B094C095D0906C0A6019B
:1005700095012E193F09400B510B57FD08C0118200
:100580002282338224833583468357831DC081E0D2
:1005900081832282338288279927DC01821B930B77
:1005A000A40BB50B84839583A683B7830DC0220F5C
:1005B000331F441F551F248335834683578382810D
:1005C000938101978283938324813581468157816A
:1005D000DA01C9010197A109B1098F5F9F4FAF4FA0
:1005E000BF4328F30BC0918322823382EA0CFB1CA9
:1005F0000C1D1D1DE482F5820683178383E0808332
:10060000248135814681578157FF1AC0C901AA2725
:1006100097FDA095BA2F81709070A070B07056951C
:10062000479537952795822B932BA42BB52B848345
:100630009583A683B7838281938101968283938376
:10064000DF0101C0D201CD01CDB7DEB7E2E10C94EC
:10065000EE4DA0E2B0E0EFE2F3E00C94DE4D6983F2
:100660007A838B839C832D833E834F835887E9E075
:10067000EE2EF12CEC0EFD1ECE010196B7010E946C
:10068000AC078E010F5E1F4FCE010596B8010E9488
:10069000AC078A8991E089278A8BC701B801AE012E
:1006A000475E5F4F0E94DD010E94D706A096E6E0FC
:1006B0000C94FA4DA0E2B0E0E0E6F3E00C94DE4DDD
:1006C00069837A838B839C832D833E834F835887F2
:1006D000F9E0EF2EF12CEC0EFD1ECE010196B701D4
:1006E0000E94AC078E010F5E1F4FCE010596B80128
:1006F0000E94AC07C701B801AE01475E5F4F0E9480
:10070000DD010E94D706A096E6E00C94FA4DA0E227
:10071000B0E0EDE8F3E00C94D24D69837A838B83EB
:100720009C832D833E834F835887CE010196BE0163
:10073000675F7F4F0E94AC07CE010596BE016F5EDA
:100740007F4F0E94AC079985923088F0898982306A
:10075000C8F0943019F4823051F404C0843029F484
:10076000923081F488E390E4C6C0923049F420E0EE
:100770009A858A89981321E02A87CE010996BBC001
:10078000823049F420E09A858A89981321E02A8BE7
:10079000CE014196B0C02D843E844F8458886D8828
:1007A0007E888F88988CEE24FF248701AA24BB249E
:1007B000650140E050E060E070E0E0E0F0E0C101A1
:1007C00081709070892BE9F0E60CF71C081D191D4B
:1007D0009A01AB012A0D3B1D4C1D5D1D80E090E090
:1007E000A0E0B0E0E614F7040805190520F481E064
:1007F00090E0A0E0B0E0BA01A901480F591F6A1FBC
:100800007B1FAA0CBB1CCC1CDD1C97FE08C081E022
:1008100090E0A0E0B0E0A82AB92ACA2ADB2A3196E3
:10082000E032F10549F0660C771C881C991C56943F
:10083000479437942794C3CFFA85EA892B893C895A
:100840008B859C85280F391F2E5F3F4F17C0CA012B
:1008500081709070892B61F016950795F794E79455
:1008600080E090E0A0E0B0E8E82AF92A0A2B1B2BF0
:1008700076956795579547952F5F3F4F77FDE7CF63
:100880000CC0440F551F661F771F17FD4160EE0C0B
:10089000FF1C001F111F21503040403090E05907CD
:1008A00090E0690790E4790760F32B8F3C8FDB01C0
:1008B000CA018F779070A070B07080349105A10547
:1008C000B10561F447FD0AC0E114F1040105110509
:1008D00029F0405C5F4F6F4F7F4F40781A8EFE17B4
:1008E00011F081E08A8F4D8F5E8F6F8F78A383E048
:1008F000898FCE0149960E94D706A096E2E10C941A
:10090000EE4DA8E1B0E0E7E8F4E00C94DA4D69833D
:100910007A838B839C832D833E834F835887B9E0F2
:10092000EB2EF12CEC0EFD1ECE010196B7010E94BC
:10093000AC078E010F5E1F4FCE010596B8010E94D5
:10094000AC072985223008F47EC03989323010F492
:10095000B8017CC08A859A8989278A87243011F05A
:10096000223031F4231709F06EC068E370E46EC0E2
:10097000343039F41D861E861F86188A1B861C8615
:1009800004C0323021F484E08987B7015FC02B8531
:100990003C858B899C89281B390B2B873C87ED84F0
:1009A000FE840F851889AD88BE88CF88D88CEA145C
:1009B000FB040C051D0540F4EE0CFF1C001F111F6D
:1009C000215030402B873C8720E030E040E050E071
:1009D00080E090E0A0E0B0E460E070E0EA14FB04A6
:1009E0000C051D0540F0282B392B4A2B5B2BEA18F0
:1009F000FB080C091D09B695A79597958795EE0CF0
:100A0000FF1C001F111F6F5F7F4F6F31710531F7A2
:100A1000DA01C9018F779070A070B07080349105B1
:100A2000A105B10561F427FD0AC0E114F104010537
:100A3000110529F0205C3F4F4F4F5F4F20782D87E5
:100A40003E874F87588BBE01675F7F4FCB010E9467
:100A5000D7066896EAE00C94F64DA8E1B0E0E3E32F
:100A6000F5E00C94DE4D69837A838B839C832D8320
:100A70003E834F83588789E0E82EF12CEC0EFD1E53
:100A8000CE010196B7010E94AC078E010F5E1F4F89
:100A9000CE010596B8010E94AC078985823040F0EE
:100AA0008989823028F0C701B8010E94240801C05A
:100AB0008FEF6896E6E00C94FA4DA8E0B0E0E3E62C
:100AC000F5E00C94DB4D9B01AC0183E08983DA01F6
:100AD000C9018827B7FD83959927AA27BB27B82E78
:100AE000211531054105510519F482E089833AC089
:100AF0008823A9F0203080E0380780E0480780E8AC
:100B0000580729F460E070E080E09FEC30C0EE24EC
:100B1000FF248701E21AF30A040B150B02C07901C6
:100B20008A018EE1C82ED12CCB82DC82ED82FE823E
:100B30000F831887C801B7010E948806019718160D
:100B4000190684F4082E04C0EE0CFF1C001F111FB0
:100B50000A94D2F7ED82FE820F831887C81AD90A49
:100B6000CB82DC82BA82CE0101960E94D7062896FB
:100B7000E9E00C94F74DACE0B0E0E1ECF5E00C946A
:100B8000E24D69837A838B839C83CE010196BE01FB
:100B90006B5F7F4F0E94AC078D81823061F18230A4
:100BA00050F1843021F48E81882351F12EC02F81A1
:100BB000388537FD20C06E812F3131051CF066234A
:100BC000F9F023C08EE190E0821B930B29853A85D2
:100BD0004B855C8504C056954795379527958A9532
:100BE000D2F76623B1F050954095309521953F4F4F
:100BF0004F4F5F4F0EC020E030E040E050E009C0B2
:100C00002FEF3FEF4FEF5FE704C020E030E040E020
:100C100050E8B901CA012C96E2E00C94FE4DA8E020
:100C2000B0E0E5E1F6E00C94DA4D7B018C01611552
:100C300071058105910519F482E0898360C083E024
:100C400089838EE1C82ED12CCB82DC82ED82FE829C
:100C50000F831887C801B7010E948806FC013197ED
:100C6000F7FF3BC0222733272E1B3F0B570168019C
:100C7000022E04C0D694C794B794A7940A94D2F7CE
:100C800040E050E060E070E081E090E0A0E0B0E0A3
:100C900004C0880F991FAA1FBB1F2A95D2F701977E
:100CA000A109B1098E219F21A023B1230097A1059D
:100CB000B10521F041E050E060E070E04A295B2995
:100CC0006C297D294D835E836F8378878EE190E068
:100CD0008E1B9F0B8B839C8312C0309781F00E2E4E
:100CE00004C0EE0CFF1C001F111F0A94D2F7ED8206
:100CF000FE820F831887CE1ADF0ACB82DC821A822B
:100D0000CE0101960E94D7062896EAE00C94F64D93
:100D1000EF92FF920F931F937B018C0180E0E81606
:100D200080E0F80681E0080780E0180788F48FEF7C
:100D3000E816F1040105110531F028F088E090E093
:100D4000A0E0B0E017C080E090E0A0E0B0E012C00A
:100D500080E0E81680E0F80680E0080781E01807E8
:100D600028F088E190E0A0E0B0E004C080E190E0ED
:100D7000A0E0B0E020E230E040E050E0281B390B7A
:100D80004A0B5B0B04C016950795F794E7948A9578
:100D9000D2F7F701E05CFF4B8081281B3109410944
:100DA0005109C9011F910F91FF90EF900895DF92B3
:100DB000EF92FF920F931F93FC01E480F580068170
:100DC0001781D1808081823048F480E090E0A0E1FA
:100DD000B0E0E82AF92A0A2B1B2BA5C0843009F4BD
:100DE0009FC0823021F4EE24FF24870105C0E11466
:100DF000F1040105110519F4E0E0F0E096C062810C
:100E000073819FEF623879070CF05BC022E83FEFF7
:100E1000261B370B2A3131052CF020E030E040E072
:100E200050E02AC0B801A701022E04C0769567954C
:100E3000579547950A94D2F781E090E0A0E0B0E0A2
:100E400004C0880F991FAA1FBB1F2A95D2F70197CC
:100E5000A109B1098E219F21A023B1230097A105EB
:100E6000B10521F081E090E0A0E0B0E09A01AB0193
:100E7000282B392B4A2B5B2BDA01C9018F77907015
:100E8000A070B07080349105A105B10539F427FF39
:100E900009C0205C3F4F4F4F5F4F04C0215C3F4F64
:100EA0004F4F5F4FE0E0F0E02030A0E03A07A0E0D5
:100EB0004A07A0E45A0710F0E1E0F0E079018A0166
:100EC00027C06038710564F5FB01E158FF4FD80178
:100ED000C7018F779070A070B07080349105A10524
:100EE000B10539F4E7FE0DC080E490E0A0E0B0E089
:100EF00004C08FE390E0A0E0B0E0E80EF91E0A1F06
:100F00001B1F17FF05C016950795F794E7943196B8
:100F100087E016950795F794E7948A95D1F705C071
:100F2000EE24FF248701EFEFF0E06E2F6795662730
:100F30006795902F9F77D794DD24D7948E2F869531
:100F4000492F462B582F5D29B701CA011F910F91D8
:100F5000FF90EF90DF900895FC01DB01408151810B
:100F60002281622F6F7770E0221F2227221F938138
:100F7000892F880F822B282F30E0991F9927991FDE
:100F800011969C93119721153105A9F5411551052D
:100F90006105710511F482E037C082E89FEF129677
:100FA0008D939C9313979A01AB0167E0220F331F37
:100FB000441F551F6A95D1F783E08C930DC0220F13
:100FC000331F441F551F12968D919C9113970197C3
:100FD00012968D939C931397203080E0380780E021
:100FE000480780E4580758F314962D933D934D938A
:100FF0005C93179708952F3F310579F441155105FA
:101000006105710519F484E08C93089564FF03C0B1
:1010100081E08C9312C01C9210C02F573040129662
:101020002D933C93139783E08C9387E0440F551FD7
:10103000661F771F8A95D1F7706414964D935D9360
:101040006D937C93179708951F93DC01FB019C918E
:10105000923008F447C08081823008F443C0943055
:1010600051F411961C91843099F58181682F70E0BC
:10107000611B71093FC0843021F0923031F482301D
:10108000B9F18181882389F12DC011961C911197A6
:101090008230F1F081811817D9F412962D913C918C
:1010A0001397828193818217930794F02817390749
:1010B000BCF014968D919D910D90BC91A02D248132
:1010C000358146815781281739074A075B0718F48D
:1010D000112341F00AC082179307A407B50740F413
:1010E000112319F061E070E005C06FEF7FEF02C0DF
:1010F00060E070E0CB011F9108950F93DF93CF93D1
:101100000F92CDB7DEB79FB79983F8941BBE682BBB
:1011100081E490E0FC0108ED04BF608389818FBF0A
:101120000F90CF91DF910F9108950F93DF93CF939D
:101130000F92CDB7DEB7209140009FB79983F89406
:101140001BBEA0E4B0E0287F282BFD0108ED04BF02
:10115000208399819FBF9C9189230F90CF91DF912C
:101160000F910895662339F490E0482B942BE0E525
:10117000F0E09283089590E2482B942BE0E5F0E0B4
:1011800092830895E0E5F0E02081982F90959223D6
:101190009083908189230895682B642B622B609340
:1011A000400408950F93FC0181810770887F802B94
:1011B0008183762F769576958FEF9FEF02C0880F0B
:1011C000991F7A95E2F7232F342F452F5527822335
:1011D000932382839383808180788160862B8083B0
:1011E0000F910895FC0180818F77808380818064D6
:1011F0008083808186FDFDCF08958F92AF92BF924C
:10120000CF92EF920F931F93DF93CF93CDB7DEB7BB
:10121000FC01982D608771871286048715871686D2
:10122000242B2E292C292283A482B58280818C7DB7
:10123000982B8E85882371F0906290838D858683AC
:10124000CF91DF911F910F91EF90CF90BF90AF9012
:101250008F9008959083F4CF1F93162F70E0DC01D8
:10126000FC0120E030E0CB01022E02C0959587956D
:101270000A94E2F780FD408B2F5F3F4F3196283074
:10128000310589F750FF09C051FD0BC016961C931C
:10129000169711961C931F91089512961C931F91F7
:1012A000089515961C931597F4CFE0E0F8E01082AE
:1012B00080EC9DE586A397A31182138282E086834A
:1012C000178281E0808308951F920F920FB60F92CC
:1012D00008B60F9209B60F920BB60F92112418BEE2
:1012E00019BE1BBE2F933F934F935F936F937F93D2
:1012F0008F939F93AF93BF93EF93FF938091A642F9
:101300009091A742A091A842B091A9420196A11D37
:10131000B11D8093A6429093A742A093A842B09398
:10132000A942E0918EA1F0918FA1309719F08091A0
:1013300088A01995FF91EF91BF91AF919F918F91E7
:101340007F916F915F914F913F912F910F900BBEC5
:101350000F9009BE0F9008BE0F900FBE0F901F9008
:1013600018950F931F938C01FC0184818F7E8483D9
:1013700080E191E00E94F208F80183818F7C8383F1
:10138000E0E4F8E016821F910F9108958F92AF92DA
:10139000BF92CF92EF920F931F93CF93DF93EC0105
:1013A0008B015A01809110018F7780931001609317
:1013B000A4427093A542BE016F5F7F4F0F920F92C0
:1013C000EDB7FEB71182128280E191E040E820E2A1
:1013D000EE24CC24C394882483940E94FD08809139
:1013E00010018460809310010F900F90F8E0C03AD4
:1013F000DF07D1F08BE6E0E1F1E08383809110011B
:101400008068809310018B818F7C80628B838C81BC
:1014100080618C83DF91CF911F910F91EF90CF90DE
:10142000BF90AF908F9008958BE4E5CF1F920F92FD
:101430000FB60F9208B60F920BB60F92112418BE7A
:101440001BBE8F93EF93FF93E0EAF8E083818F7CDC
:10145000838382E680938001E0E4F8E088E081877E
:1014600081E0848782E08683FF91EF918F910F90D6
:101470000BBE0F9008BE0F900FBE0F901F901895D7
:101480001F920F920FB60F9208B60F920BB60F92E3
:10149000112418BE1BBE8F93EF93FF93E0EAF9E08F
:1014A00083818F7C83838AE680938001E0E4F8E087
:1014B00088E0818781E0848782E08683FF91EF91D5
:1014C0008F910F900BBE0F9008BE0F900FBE0F9024
:1014D0001F9018958F92AF92BF92CF92EF920F9379
:1014E0001F93CF93DF93EC015A01809120018F77F6
:1014F0008093200180E2E0E6F6E086830F920F926F
:10150000EDB7FEB71182128280E291E040E020E167
:101510008E01EE24CC2488240E94FD0880912001B5
:101520008460809320010F900F90F8E0C03ADF07AD
:10153000C9F08CE6E0E2F1E08383809120018068CD
:101540008093200180E489838B81837F88608B83F3
:10155000DF91CF911F910F91EF90CF90BF90AF90FF
:101560008F9008958CE4E6CF1F920F920FB60F92E2
:1015700008B60F920BB60F92112418BE1BBE8F93A4
:10158000EF93FF93E0EAF8E08381837F8383E0E2D7
:10159000F1E080818F77808380E2E0E6F6E085836A
:1015A000FF91EF918F910F900BBE0F9008BE0F909F
:1015B0000FBE0F901F9018951F920F920FB60F92AB
:1015C00008B60F920BB60F92112418BE1BBE8F9354
:1015D000EF93FF93E0EAF9E08381837F8383E0E286
:1015E000F1E080818F77808380E2E0E6F6E085831A
:1015F000FF91EF918F910F900BBE0F9008BE0F904F
:101600000FBE0F901F901895AC018091AA428823BD
:10161000E1F781E08093AA4220E030E0FA01E20F96
:10162000F31F8081F901E655FD4B82832F5F3F4F09
:101630002530310599F784E08093AB428091B04228
:10164000E0ECF8E0838308951F920F920FB60F929B
:1016500008B60F920BB60F92112418BE1BBE8F93C3
:10166000EF93FF938091AB428823D1F08091AB42FE
:1016700081508093AB42E091AB42F0E0E655FD4BE8
:101680008281E0ECF8E08383FF91EF918F910F90DE
:101690000BBE0F9008BE0F900FBE0F901F901895B5
:1016A0001092AA42F1CF1F920F920FB60F9208B676
:1016B0000F9209B60F920BB60F92112418BE19BEE5
:1016C0001BBE2F933F934F935F936F937F938F93A3
:1016D0009F93AF93BF93EF93FF93E09190A1F0910D
:1016E00091A1309709F01995FF91EF91BF91AF91BA
:1016F0009F918F917F916F915F914F913F912F912A
:101700000F900BBE0F9009BE0F9008BE0F900FBE3A
:101710000F901F9018959C01DB0188E0203038075E
:1017200030F59FB7F894E0ECF1E08091CF0187FDB0
:10173000FACF2093C001832F8F718183128286E0BC
:101740008287EF93FF930F932F93EBECF1E008ED7B
:1017500021E004BF20832F910F91FF91EF918091A1
:10176000C4018C939FBF20E030E0C90108952FEFA2
:101770003FEFC90108952F923F924F925F926F926F
:101780007F928F929F92AF92BF92CF92DF92EF9211
:10179000FF920F931F93DF93CF930F92CDB7DEB7D6
:1017A0008C014B015A01CB01800F911F8050984052
:1017B0000CF087C06115710509F46CC0CC24DD24E0
:1017C000EE24FF242E010894411C511CF0EC6F2ED6
:1017D000F1E07F2EE0EC2E2EE1E03E2EC801B201BA
:1017E0000E948B0BF50190818981981709F43EC006
:1017F000F8E000301F0708F036C02FB7F89480914A
:10180000CF0187FDFCCF8091CF0181FF11C086E31E
:10181000F1018287EF93FF930F932F93EBECF1E0AD
:1018200008ED21E004BF20832F910F91FF91EF91EC
:1018300083E3F30182870093C001812F8F7181833D
:101840001282948385E38287EF93FF930F932F9304
:10185000EBECF1E008ED21E004BF20832F910F9124
:10186000FF91EF912FBF0894E11CF11CEEE4EE16FE
:10187000E1E0FE0618F0A895EE24FF240894C11CB0
:10188000D11CC814D90430F40F5F1F4F0894A11C59
:10189000B11CA4CF20E030E0C9010F90CF91DF91BF
:1018A0001F910F91FF90EF90DF90CF90BF90AF907E
:1018B0009F908F907F906F905F904F903F902F9070
:1018C00008952FEF3FEFE8CF8F929F92AF92BF9294
:1018D000CF92DF92EF92FF920F931F93DF93CF93FC
:1018E0000F92CDB7DEB77C016B015A01CB018E0D93
:1018F0009F1D8050984054F561157105B1F000E0CE
:1019000010E04E010894811C911CC701B4010E9493
:101910008B0B8981F50181935F010894E11CF11C17
:101920000F5F1F4F0C151D0580F320E030E0C9014B
:101930000F90CF91DF911F910F91FF90EF90DF906B
:10194000CF90BF90AF909F908F9008952FEF3FEF73
:10195000EECF0F93DF93CF930F92CDB7DEB78FB754
:101960008983F8941BBE27E280E890E0FC0108ED33
:1019700004BF208389818FBF0F90CF91DF910F919A
:101980000895A89508950F93DF93CF930F92CDB745
:10199000DEB78FB7F8948FB78983F8941BBE23E026
:1019A00080E890E0FC0108ED04BF208389818FBFAF
:1019B000FFCF80E090E0A8E0B0E0FC01ABBF9081F9
:1019C0001BBE90959F77892F81508E3728F41092F7
:1019D0003772892F90E0089581E080933772892FC4
:1019E00090E0089520E030E048E050E0F9014BBF7E
:1019F00020811BBE81E090E0A8E0B0E0FC01ABBF1D
:101A000080811BBE782F709560E0209530E0262BFA
:101A1000372BC901089580E090E0A8E0B0E0FC0118
:101A2000ABBF80811BBE21E030E048E050E0F9010F
:101A30004BBF90811BBE87FF1AC090959770E92F0E
:101A4000F0E0EE0FFF1FDF01AE55BE4B8D919C9174
:101A500080931A4390931B43EE0FFF1FEE54FE4BEF
:101A60002081318142815381B901CA0108958CEDF1
:101A700095E080931A4390931B4320E032EC41E0C1
:101A800050E0B901CA010895DF93CF9300D00F92BF
:101A9000CDB7DEB72FB7F8948091A6429091A742B8
:101AA000A091A842B091A94289839A83AB83BC8359
:101AB0002FBF29813A814B815C81B901CA012496EB
:101AC000CDBFDEBFCF91DF910895DC019C916230E4
:101AD00071054CF0FD0131966A0F7B1F81919827AB
:101AE000E617F707D9F7892F08951F920F920FB6BF
:101AF0000F9208B60F9209B60F920BB60F921124EF
:101B000018BE19BE1BBE2F933F934F935F936F93E5
:101B10007F938F939F93AF93BF93EF93FF93E0E4F3
:101B2000F8E01682E0E1F1E080818F778083E0E0E9
:101B3000F1E0948D858D782F60E0690F711D8091A3
:101B4000A4429091A542681B790B0E94CB1EFF9185
:101B5000EF91BF91AF919F918F917F916F915F9125
:101B60004F913F912F910F900BBE0F9009BE0F9098
:101B700008BE0F900FBE0F901F901895EF92FF9226
:101B80000F931F937B018C0180E496E068E040E0B6
:101B900053E00E942C0980E696E068E040E053E0C4
:101BA0000E942C0980E496E064E040E050E00E944E
:101BB0002C0980E696E064E040E050E00E942C09A9
:101BC00080E496E060E440E050E00E942C0980E66A
:101BD00096E060E140E050E00E942C0980E696E04B
:101BE00060E240E053E00E942C0980E696E061E06C
:101BF00042E050E00E942C09809190A1909191A127
:101C0000892B71F0E0E6F6E080916A0681608287B8
:101C1000809169068C7F81878091690683608187C6
:101C200060E076E38EE691E0A80197010E94814D85
:101C3000C901DA0134E0B695A795979587953A954D
:101C4000D1F70197A109B1099F70A070B070482F1A
:101C5000892F9A2FAB2FBB27982F21E030E0A0EAE5
:101C6000B8E053E2E0EAF9E021303105B1F1558303
:101C7000468397838091A40988608483223031054C
:101C8000DCF11092400860E076EF84E39FE2A80167
:101C900097010E94814DC901DA01803020E092074E
:101CA00021E0A20720E0B20720F08FEF9FEFA0E035
:101CB000B0E0E0E4F8E086A397A3118288E883838C
:101CC0001682178281E08093400882E6809380012B
:101CD0001F910F91FF90EF90089515965C931597C3
:101CE00016964C93169717969C9317978091A40875
:101CF000886014968C9314972F5F3F4FB5CF1F9336
:101D0000CF93DF93182FC091258AD091268A809196
:101D10002F898823C9F08150482F50E04115510583
:101D200099F080913089882309F08CC0E1E3F9E8CB
:101D300020E030E004C08191882309F083C02F5F48
:101D40003F4F24173507B8F3E091AE70F091AF70B4
:101D50008081877F808346E055E08881813009F467
:101D600067C098E69A83842F8B5F8C838B839D83D7
:101D700080E88E838091A29F80688F8388E0888727
:101D80008091238A89878091248A8A87435F409340
:101D9000228A425049834B508B81FE01E80FF11D8E
:101DA00086E1878381E08883442369F0DE011B9606
:101DB000E9E2F9E8252F30E0265D364781918D93E1
:101DC000E217F307D9F78B81682F70E06115710571
:101DD00009F444C0FE0120E030E040E050E086819C
:101DE000480F511D2F5F3F4F319626173707B8F325
:101DF000842FC60FD71F8E834FB7F8942091278A60
:101E00003091288A8091258A9091268A8093278A0A
:101E10009093288A112319F082E08093BE6E4FBF01
:101E20002093258A3093268ADF91CF911F910895C0
:101E30002B8130E0842F90E005962817390709F0B0
:101E400090CFB2CFE091AE70F091AF70808188609A
:101E500080834091218A542F51507FCF80E0C9CF99
:101E6000CF93DF93C0919E9FD0919F9F40919A9F67
:101E70008881813009F462C098E69A83842F8B5F51
:101E80008C838B839D831E829091A29F88E088879C
:101E900080E88E8390689F8380919C9F8987809142
:101EA0009D9F8A87435F40939B9F425049834B503D
:101EB0008B81FE01E80FF11D86E1878381E0888335
:101EC000442371F0DE011B964150E2EAFEE9242F23
:101ED00030E02D55314681918D93E217F307D9F704
:101EE0008B81682F70E06115710591F1FE0140E072
:101EF00050E020E030E08681480F511D2F5F3F4FBA
:101F0000319626173707B8F3842FC60FD71F8E8355
:101F10004FB7F8942091A09F3091A19F80919E9FF0
:101F200090919F9F8093A09F9093A19F4FBF2093DC
:101F30009E9F30939F9FDF91CF9108952B8130E03A
:101F4000842F90E005962817390709F095CFB8CF70
:101F500080E0DBCFCF93DF93C0913B73D0913C7394
:101F6000409137738881813009F47BC0442309F0A4
:101F700059C086E0898380E18A83E091AE6FF09159
:101F8000AF6F90819B832091A29F2C838AE08D83E9
:101F9000920F965F9E8386E18F8381E08883809194
:101FA0003773882349F1442371F0DE0119964150BB
:101FB000E1E3F1E7242F30E02E5C3E4881918D93E0
:101FC000E217F307D9F78B81682F70E0611571056F
:101FD00009F452C0FE0140E050E020E030E086818C
:101FE000480F511D2F5F3F4F319626173707B8F323
:101FF000842FC60FD71F8E834FB7F89420913D735F
:1020000030913E7380913B7390913C7380933D730C
:1020100090933E734FBF20933B7330933C73DF919B
:10202000CF91089598E69A83842F8D5F8C838B835C
:102030009D83E091AE6FF091AF6F80818E83809130
:10204000A29F8F838AE08887455F40933873425010
:10205000498349508B81FE01E80FF11D86E187839A
:102060009CCF2B8130E0842F90E00396281739070E
:1020700009F07CCF842F95CF80E0BBCFCF93DF9347
:10208000C0912D72D0912E724091297281E080937F
:102090004573109248738881813009F47BC04423D2
:1020A00009F059C086E0898380E18A83E091AE6FB0
:1020B000F091AF6F90819B832091A29F2C8388E049
:1020C0008D83920F985F9E8386E18F8381E0888362
:1020D00080912972882349F1442371F0DE01199619
:1020E0004150E1E3F1E7242F30E02E5C3E4881913E
:1020F0008D93E217F307D9F78B81682F70E0611594
:10210000710509F452C0FE0140E050E020E030E0EB
:102110008681480F511D2F5F3F4F31962617370795
:10212000B8F3842FC60FD71F8E834FB7F894209132
:102130002F723091307280912D7290912E72809317
:102140002F72909330724FBF20932D7230932E7266
:10215000DF91CF91089598E69A83842F8D5F8C83C9
:102160008B839D83E091AE6FF091AF6F80818E8302
:102170008091A29F8F8388E08887455F40932A7271
:102180004250498349508B81FE01E80FF11D86E1E1
:1021900087839CCF2B8130E0842F90E00396281713
:1021A000390709F07CCF842F95CF80E0BBCF809199
:1021B0004273882319F0833009F00895809189A132
:1021C0002091B745829FC00111249C01220F331F2B
:1021D000220F331F220F331F880F991F280F391F1B
:1021E000209335723093367281E080934273089564
:1021F00040914273423009F00895809189A1209165
:10220000B745829FC00111249C01220F331F220F6A
:10221000331F220F331F880F991F280F391F209358
:102220003572309336720895982FFB018091B0A2D9
:10223000813009F008959130E9F78081813011F003
:102240008138C1F72091A8A13091A9A121153105AC
:1022500089F3CF01642FF901199508951F93FB01AC
:102260009091B0A2913011F01F910895882399F0B8
:102270008091CB73882311F590E081E08093B14287
:1022800010E0992311F00E94AA0F112369F30E9414
:102290003E101F9108958091B1428823D9F4808126
:1022A000882311F38091CB738823F1F290932872E5
:1022B00080818093297290932772E9CF6081662391
:1022C00081F16093377381E0809336738093357327
:1022D00091E0D3CF8081882379F48091CB738823D8
:1022E00029F110923673109237731092357310E003
:1022F00091E01092B142C5CF8091CB738823B1F0A9
:102300009093287280818093297290932772109203
:1023100036738081809337731092357311E091E0AA
:10232000E8CF9093377310923F72CDCF10E090E0DA
:10233000E0CFFC019091B0A2913009F00895808126
:102340008823E1F3E091B973F091BA733097B1F358
:102350008081882399F30284F385E02DE950FF4FB3
:10236000908392930895FC019091B0A2913009F06E
:10237000089580818823E1F3E091BB73F091BC73F1
:102380003097B1F38081882399F30284F385E02D9F
:10239000E950FF4F908392930895EF92FF920F932D
:1023A0001F93CF93DF93382FE8018701862F807327
:1023B000A1F1832F82958F70A82FB0E0F701808163
:1023C00091818A0F9B1F80839183832F8F70462B6F
:1023D000422B942F9F60109759F0FE0120E030E0CF
:1023E00091932F5F3F4F2A173B07D4F3CA0FDB1F90
:1023F000882349F08150482B4883F80180819181DE
:1024000001968083918320E030E0C901DF91CF9174
:102410001F910F91FF90EF90089521E030E0C901E6
:10242000DF91CF911F910F91FF90EF9008954F9200
:102430005F926F927F928F92AF92CF92DF92EF92E4
:10244000FF920F931F93DF93CF93CDB7DEB72A018F
:1024500039012C2D3A89F30110821182802F869543
:10246000869586958E0D90E010E007701070012B18
:1024700009F091E0C82EC90E83E0A89EC001112486
:10248000C80E882D90E0880F991F820F911D880F2C
:10249000991FC80ED32ED694D694D6948B89D80E75
:1024A00020E0832F90E087709070892B09F021E065
:1024B000D20E23E08D89829FC0011124D80E8E890F
:1024C00090E0880F991F2C89820F911D880F991F0A
:1024D000D80E8C2D869560E140E420E082017301E6
:1024E0000E94CD11F30100811181040D151D8C2D69
:1024F000817060E140E020E00E94CD11F301008195
:102500001181040D151D8D2D869560E240E420E0BB
:102510000E94CD11F30100811181040D151D8D2D37
:10252000817060E240E020E00E94CD1180E090E008
:10253000CF91DF911F910F91FF90EF90DF90CF909F
:10254000AF908F907F906F905F904F900895E09143
:102550004673F0914773808190E0929582958F70D9
:1025600089279F7089278170089581E08093B0A2A8
:102570008091AAA26091C06E0E94DA14E091467325
:10258000F0914773808181608083E091AE70F0911B
:10259000AF7080818B7F8083E091AE70F091AF70DF
:1025A00080818F7B8083E091AE70F091AF708081ED
:1025B0008F7E8083E091AE6FF091AF6F8FEF80835D
:1025C000E0914673F09147738081877F8083E0912B
:1025D000AE70F091AF70808182608083E09146732D
:1025E000F091477380818F7D8083E0914673F091F5
:1025F000477380818F7E8083209132723091337255
:102600002115310589F040913172C90160E070E017
:1026100050E00E94124EE091AAA1F091ABA1309738
:1026200019F0809188A019952091B3A53091B4A597
:102630002115310541F04091B2A5C90160E070E07B
:1026400050E00E94124EE0913F73F091407310826F
:1026500010929A9F81E0809330716CE372E70E9440
:102660002E1180E00E9486130E94731382E08093F3
:1026700088A0E09196A1F09197A1309709F0199563
:102680000895282F809188A0823009F008958091C4
:10269000D0A88823D9F78091B5459091B645861783
:1026A0009707A1F72E3790F72093AAA24093D0A8BE
:1026B00081E0809388A00E94B5120895809188A03F
:1026C000823029F0833019F0843039F0089581E0A8
:1026D000809388A00E94B512089581E0809388A01D
:1026E0000E94B51208959091B0A2913009F008951A
:1026F00080913B72882319F40E945E130895909391
:10270000999F9093989F0E94300F0895282F909141
:10271000B0A2913009F0089580913872882319F49D
:102720000E945E1308959093208A90931F8A822FAF
:102730000E947F0E08950F931F93DF93CF930F9204
:10274000CDB7DEB78091B0A2813031F00F90CF913C
:10275000DF911F910F9108951092CB7382E068E38F
:102760008E010F5F1F4FA8010E94D3288981882303
:1027700019F08150823050F182E06AE3A8010E9492
:10278000D3288981882319F081508230E0F082E0DB
:1027900062E0A8010E94D3288981882319F0815022
:1027A000823070F082E069E3A8010E94D328898119
:1027B000882361F28150823048F60E945E13C6CFB2
:1027C0000E945E13EFCF0E945E13E1CF0E945E1362
:1027D000D3CFBF92CF92DF92EF92FF920F931F93CE
:1027E000DF93CF93CDB7DEB72597CDBFDEBFB82E31
:1027F0008091B0A2813069F02596CDBFDEBFCF9128
:10280000DF911F910F91FF90EF90DF90CF90BF90DD
:10281000089580E480932B7280932C7280912D72A6
:1028200090912E72892B09F47EC080E480933973D5
:1028300080933A7380913B7390913C73892B09F498
:102840007FC081E08093CB7394E09A838B8380E197
:102850008C831D8232E0C32ED12CCC0EDD1E82E093
:102860006AE34B2D96017E010894E11CF11C87015F
:102870000E94042A8981882321F08150823008F443
:1028800046C082E062E04B2D960187010E94042A37
:102890008981882319F081508230E0F182E068E379
:1028A0004FEF2FEF87010E943B298981882319F080
:1028B0008150823090F181E391E780933D72909353
:1028C0003E7280913C72809329728093377382E0CC
:1028D00069E34FEF20E087010E943B29898188232B
:1028E00019F081508230E0F0E091BB73F091BC733D
:1028F0000284F385E02DE093B3A5F093B4A5E850EE
:10290000FF4F8091B2A580831092B84575CF0E9489
:102910005E13B7CF0E945E13C1CF0E945E13CBCF70
:102920000E945E13E1CF0E94AE2C80932D72909393
:102930002E720E94AE2C80932F729093307275CFBE
:102940000E94AE2C80933B7390933C730E94AE2CFC
:1029500080933D7390933E7374CFDF93CF93CDB745
:10296000DEB72A97CDBFDEBF89879A878091B0A254
:10297000813031F02A96CDBFDEBFCF91DF9108952F
:1029800089859A85892BB1F387E08983CE010996E1
:102990008A839B831D8280E0BE016F5F7F4F0E9410
:1029A000312B8885882331F38150823018F70E94BB
:1029B0005E13E0CFEF92FF920F931F93DF93CF93BD
:1029C000CDB7DEB72997CDBFDEBF1091B0A21130D1
:1029D00051F02996CDBFDEBFCF91DF911F910F91AE
:1029E000FF90EF9008958093B14580E07E010894B8
:1029F000E11CF11CB7010E940D2C9981892F815097
:102A0000823008F4DEC0992321F71A8381EB95E424
:102A10008B839C831E8280E0BE016E5F7F4F0E948D
:102A2000312B89858983882309F0C4C08EE3809384
:102A3000CEA91092CFA9E091D0A9F091D1A9309759
:102A400009F4EDC01092CAA981E08093CBA910824D
:102A5000E091D2A9F091D3A910828093ACA21092F8
:102A600087A08EE38093238A8CE38093248A8091CD
:102A7000258A9091268A892B09F4C4C089E299E8B5
:102A80008093AE709093AF7001968093467390934D
:102A900047730197AC014E5F5F4F4093B945509328
:102AA000BA4503968093AE6F9093AF6F0196809373
:102AB000CEA89093CFA82091B64520932D89209140
:102AC000B54520932E89BC016D5F7F4F6093D2A8DE
:102AD0007093D3A810922F89E0919EA1F0919FA1AD
:102AE000309729F0CA0119958F5F80932F898091C3
:102AF0002F898A5F8093218A81E08093387282E0F7
:102B00006DE34FEF2FEF87010E943B2989818823D6
:102B100029F08150823010F40E945E1382E06EE34F
:102B20004FEF2FEF87010E943B298981882329F0ED
:102B30008150823010F40E945E138EE380939C9F3C
:102B40008BE380939D9F80919E9F90919F9F892B67
:102B5000D9F182EA9EE980933F739093407381E0BC
:102B600080933B7282E067E34FEF20E087010E9491
:102B70003B298981882329F08150823010F40E94FA
:102B80005E13109283A181E0809384A1E09185A1DE
:102B9000F09186A1309729F11082E09187A1F09100
:102BA00088A1108210927FA1109280A181E0809371
:102BB000ADA20FCF8150823008F038CF0E945E1353
:102BC00035CF0E945E1305CF0E94AE2C80939E9F4E
:102BD00090939F9F0E94AE2C8093A09F9093A19F63
:102BE000B8CF0E94AE2C809385A1909386A10E94BD
:102BF000AE2C809387A1909388A1E09185A1F0915C
:102C000086A1CACF0E94AE2C8093258A9093268AF3
:102C10000E94AE2C8093278A9093288A2FCF0E94FF
:102C2000AE2C8093D0A99093D1A90E94AE2C809312
:102C3000D2A99093D3A9E091D0A9F091D1A902CFC4
:102C400081E0809388A00E94B51283E08093427354
:102C50000895EF92FF920F931F93DF93CF9300D0CD
:102C600000D0CDB7DEB7E091A0A1F091A1A130973F
:102C700009F455C040913F735091407370E09E013C
:102C80002F5F3F4F8E010D5F1F4FA5E0EA2EF12C05
:102C9000EC0EFD1E1995892B09F441C089818093A2
:102CA0009A9F8B8180933C72809384A04D81409346
:102CB000B2A54093317240934546209132723091D3
:102CC00033722115310579F0C90160E070E050E000
:102CD0000E94124EE091AAA1F091ABA1309719F099
:102CE000809188A019952091B3A53091B4A52115A4
:102CF000310541F04091B2A5C90160E070E050E0BB
:102D00000E94124E0E94731381E02696CDBFDEBF53
:102D1000CF91DF911F910F91FF90EF90089580E088
:102D2000F4CFEF92FF920F931F93DF93CF93CDB722
:102D3000DEB72597CDBFDEBF982F8B01F42E809193
:102D4000B0A2813051F02596CDBFDEBFCF91DF918B
:102D50001F910F91FF90EF9008959C3331F19034C3
:102D600009F447C0983379F3993369F39D3309F433
:102D7000C1C09E3309F4E2C09B3329F3973319F79E
:102D8000B3E0B41700F7FB01808161817281438158
:102D9000FCEFFF0EFB820C5F1F4F0C831D839E0117
:102DA0002D5F3F4F0E944113CECF809188A082308B
:102DB00051F2833009F493C0843029F6E091AE6F6C
:102DC000F091AF6F90818091CC73981709F0BBCFD1
:102DD000E0914673F0914773808181FD07C01092A6
:102DE000307180E06CE372E70E942E110E94F810AF
:102DF000AACF809188A0843009F0A5CF8091454664
:102E0000481709F4D9C0E091AE70F091AF7080819D
:102E100084608083E091A4A1F091A5A1309709F08E
:102E20001995E091AE6FF091AF6F8FEF8083E091D5
:102E30004673F091477380818F7D8083E091467364
:102E4000F091477380818F7E8083E0914673F0918B
:102E50004773808181608083E091AE70F091AF70A4
:102E600080818260808380914273823009F453C1F3
:102E7000E0914673F09147738081877F8083209132
:102E80003272309133722115310589F040913172DF
:102E9000C90160E070E050E00E94124EE091AAA1EA
:102EA000F091ABA1309719F0809188A019952091ED
:102EB000B3A53091B4A52115310541F04091B2A5DB
:102EC000C90160E070E050E00E94124E0E949B1326
:102ED00080E00E94861382E0809388A034CFE09146
:102EE000AE6FF091AF6F90818091CC73981709F01D
:102EF0002ACF7CCF86E0841758F4809188A0823056
:102F000009F40DC1833009F420C1843009F451C1A2
:102F10002091B2A13091B3A12115310509F413CF4D
:102F2000E091AE70F091AF70808182958695869524
:102F3000837080958170F901199505CF809188A0E3
:102F4000823009F400CF833009F476C0843009F070
:102F5000FACEE091AE6FF091AF6F90818091CC731B
:102F6000981709F0F0CEE0913F73F091407344233D
:102F7000A1F0DB019C918081981709F044CF41506A
:102F80000AC00F5F1F4F31964150D8019C9180813C
:102F9000981709F038CF4423A1F70E94F810E09168
:102FA000A2A1F091A3A1309719F0809188A0199562
:102FB00084E0809388A0C7CE442379F14091B3A5E3
:102FC0005091B4A520E030E0FA01E20FF31FD801E0
:102FD000A20FB31F8C9180832F5F3F4FF216A1F792
:102FE000E0914673F0914773808185FD16C0409152
:102FF00032725091337220E030E0FA01E20FF31F99
:10300000D801A20FB31F8C9180832F5F3F4FF21620
:10301000A1F781E392E70E94B31181E080934173AD
:103020000E94F8108091BE6E882309F48CCE6CE368
:1030300072E70E942E1187CEE091AE6FF091AF6FD4
:1030400020818091CC73281709F07DCEA0913F7329
:10305000B09140734423A1F0FB0190818C919817AB
:1030600009F0FAC141500AC00F5F1F4F119641503D
:10307000F80190818C91981709F0EEC14423A1F7D3
:10308000822F0E94E913E091AE70F091AF708081C1
:103090008B7F808381E080933071E091AE70F091FE
:1030A000AF7080818D7F808381E392E70E94B311AE
:1030B00090913C7260913D7270913E72409185A0FA
:1030C000509186A0992371F020E030E0FB01E20FDF
:1030D000F31FDA01A20FB31F8C9180832F5F3F4F44
:1030E0009217A1F78CE392E70E94991180913071B9
:1030F0006CE372E70E942E110E943E1080E00E9455
:1031000086130E94F810E091A2A1F091A3A130973C
:1031100009F04BCF4DCF83E080934273A9CEDB0102
:1031200015968C911597898314968C9114978A83A0
:103130008C91482F50E086FDEBCE87FD0CC1139695
:103140008C9190E00E94AD14E3CEDB0115968C913A
:103150001597898314968C9114978A838C91482FA4
:1031600050E086FFA5C0E091AE6FF091AF6F908107
:103170008091CC73981709F0CBCE8FEF8083E091CC
:103180004673F091477380818160808380914273A0
:10319000823009F410C2E0914673F0914773808148
:1031A000877F808380E00E94861382E0809388A0DE
:1031B000AFCEDB0115968C911597898314968C916F
:1031C00014978A838C91482F50E086FF99C0A09174
:1031D000AE6FB091AF6F9C918091CC73981709F04E
:1031E00097CEE091A4A1F091A5A1309729F019956F
:1031F000A091AE6FB091AF6F8FEF8C93E09146735B
:10320000F091477380818F7D8083E0914673F091C8
:10321000477380818F7E8083E0914673F09147737E
:10322000808181608083E091AE70F091AF70808189
:103230008260808380914273823019F483E08093AE
:103240004273E0914673F09147738081877F80835A
:1032500020913272309133722115310589F04091FD
:103260003172C90160E070E050E00E94124EE091BE
:10327000AAA1F091ABA1309719F0809188A019957F
:103280002091B3A53091B4A52115310541F04091AD
:10329000B2A5C90160E070E050E00E94124E0E94A9
:1032A0009B1380E00E94861382E0809388A030CE3A
:1032B00087FF20C029813A818091B5459091B6451C
:1032C0002817390709F4FCC0E091AE6FF091AF6F99
:1032D00090818091CC73981709F01ACEE091AE706E
:1032E000F091AF70808180648083E091AE6FF09147
:1032F000AF6F43CFF801838190E00E94AD1408CEF8
:1033000087FFF8CF29813A818091B5459091B645E4
:103310002817390709F453C1E091AE6FF091AF6FF0
:1033200090818091CC73981709F0F2CDE091AE7046
:10333000F091AF70808180648083E091A4A1F091CE
:10334000A5A1309709F01995E091AE6FF091AF6F9C
:103350008FEF808353CF29813A818091B545909139
:10336000B6452817390709F0A0C09A0128703070B7
:1033700043FF09C0FB018181882309F496C0828143
:10338000882309F492C044FF05C08091AA70882365
:1033900009F451C245FF05C080913972882309F4B0
:1033A0004AC247705070452B09F045C2232B09F0E3
:1033B00026C2E091AE6FF091AF6F8091CC738083A5
:1033C000F801838190E00E94AD14D80116968C918B
:1033D0008093AB70E091AE70F091AF7080818F7B85
:1033E0008083E0914673F091477380818E7F808364
:1033F000E091AE70F091AF7080818F7E808380E02D
:103400000E94861383E0E82EE09288A0B9EFFB0EBD
:10341000C80107966F2D0E942916882309F078CDE0
:10342000E091AE70F091AF70808180648083E09114
:10343000AE6FF091AF6F8FEF8083E0914673F091A4
:10344000477380818160808380914273823009F06C
:10345000A2CEE09242739FCEE091AE70F091AF7039
:10346000808180648083E0914673F091477380810E
:1034700081608083E091AE6FF091AF6F8FEF8083BA
:1034800080914273823019F483E080934273E0911B
:103490004673F09147738081877F808380E00E942C
:1034A000861382E0809388A04ECCE091AE70F091BC
:1034B000AF7080818064808380E00E94861328CD75
:1034C0009A012870307043FF1DC0FB018181882361
:1034D00019F082818823B1F4E091AE6FF091AF6F63
:1034E00090818091CC73981709F012CDE091AE7065
:1034F000F091AF70808180648083E091AE6FF09135
:10350000AF6F3BCE44FF04C08091AA708823A1F125
:1035100045FF04C080913972882371F14770507063
:10352000452B51F5232B09F04EC180914273823017
:1035300019F483E080934273E0914673F0914773EE
:103540008081877F8083E091AE6FF091AF6F809133
:10355000CC738083F80186818093AB70838190E087
:103560000E94AD1480E00E948613B3E0EB2EE0923F
:1035700088A0F9EFFF0E4CCFE091AE6FF091AF6FE6
:1035800090818091CC73981709F0C2CC232B61F005
:10359000D80111968C911197882309F4B9CC129611
:1035A0008C91882309F4B4CCE091AE70F091AF70A7
:1035B0008081806199CE83E080934273ECCD9A0143
:1035C0002870307043FF0CC0DB0111968C9111976D
:1035D000882309F4A1CE12968C91882309F49CCEFD
:1035E00044FF05C08091AA70882309F43AC145FFC1
:1035F00005C080913972882309F433C14770507037
:10360000452B09F02EC1232B09F079C0E091AE6F54
:10361000F091AF6F90818091CC73981709F441C0FD
:10362000E0914673F091477380818F7D8083E091B4
:103630004673F091477380818F7E8083E091AE70F6
:10364000F091AF70808182608083209132723091DE
:1036500033722115310589F040913172C90160E062
:1036600070E050E00E94124EE091AAA1F091ABA14F
:10367000309719F0809188A019952091B3A53091C9
:10368000B4A52115310541F04091B2A5C90160E012
:1036900070E050E00E94124E0E949B1383E08093E2
:1036A00088A080914273823019F483E08093427342
:1036B000E0914673F09147738081877F8083E0912A
:1036C000AE6FF091AF6F8091CC738083D801169666
:1036D0008C9116978093AB7013968C9190E00E941A
:1036E000AD1480E00E948613B9EFFB0EC801079667
:1036F0006F2D0E942916882309F00ACC17CEE0917D
:10370000AE6FF091AF6F90818091CC73981709F4F0
:1037100041C0E0914673F091477380818F7D808333
:10372000E0914673F091477380818F7E8083E091B2
:10373000AE70F091AF708081826080832091327290
:10374000309133722115310589F040913172C901F0
:1037500060E070E050E00E94124EE091AAA1F0916A
:10376000ABA1309719F0809188A019952091B3A54D
:103770003091B4A52115310541F04091B2A5C901A0
:1037800060E070E050E00E94124E0E949B1383E0C4
:10379000809388A0F8018181809389A182818093A0
:1037A000B7450E94D71080914273813009F481C0DF
:1037B000833009F47EC0E0914673F09147738081B5
:1037C000886080837CCFD80111968C91119780936B
:1037D00089A112968C918093B7450E94D710809151
:1037E0004273813009F461C0833009F45EC0E09116
:1037F0004673F0914773808188608083A4CED8019E
:1038000011968C911197809389A112968C91809337
:10381000B7450E94D71080914273813009F44DC0A2
:10382000833009F44AC0E0914673F0914773808178
:1038300088608083BECD232B49F0F80181818823E5
:1038400009F466CB8281882309F462CBE091AE70E3
:10385000F091AF7080818061808380E00E94861348
:1038600057CBE091AE6FF091AF6F90818091CC73A8
:10387000981709F04DCB232B49F0F801818188235B
:1038800009F446CB8281882309F442CBE091AE70E3
:10389000F091AF70808180618083E091A4A1F0916C
:1038A000A5A1309709F04FCD4FCD82E080934273B0
:1038B0009ECF82E0809342737ECF82E080934273FA
:1038C000B2CFCF93DF93982FFB018091B0A28130CC
:1038D00019F0DF91CF9108959A33C1F0923089F4B5
:1038E00080818230B1F7E091B0A1F091B1A1309721
:1038F00081F3809188A01995019759F70E943E1095
:10390000E8CF0E945E13DF91CF910895423009F70E
:1039100020816181809188A0843009F440C0853085
:1039200009F40EC18630A9F6C22FC1FF2BC0209129
:10393000B3A53091B4A52115310541F04091B2A550
:10394000C90160E070E050E00E94124E2091327296
:10395000309133722115310589F040913172C901DE
:1039600060E070E050E00E94124EE091AAA1F09158
:10397000ABA1309719F0809188A0199581E392E767
:103980000E94B311E091A2A1F091A3A1309719F088
:10399000809188A0199584E0809388A09ACFE091C7
:1039A000AE6FF091AF6F90818091CC73981709F052
:1039B00090CF662329F08091AB70682309F489CFFA
:1039C000C22FD0E09E0120723070C5FF05C08091EB
:1039D0003972882309F446C0AE01417C09F042C027
:1039E000C4FF28C180913972882341F1E091467368
:1039F000F091477380818F7D8083909131724091E7
:103A00003272509133726091B3A57091B4A599232D
:103A100071F020E030E0FA01E20FF31FDB01A20FAA
:103A2000B31F8C9180832F5F3F4F9217A1F781E3E3
:103A300092E70E94B31180E00E94861385E0809394
:103A400088A0CE018C709070892B09F4A9C09E01CA
:103A5000247030708091AA70882309F074C0232BE1
:103A600009F09EC0E091AE70F091AF7080818061EE
:103A70008083E091A4A1F091A5A1309709F0199558
:103A8000E091AE6FF091AF6F8FEF8083E09146735E
:103A9000F091477380818F7D8083E0914673F09130
:103AA000477380818F7E8083E0914673F0914773E6
:103AB000808181608083E091AE70F091AF708081F1
:103AC0008260808380914273823019F483E0809316
:103AD0004273E0914673F09147738081877F8083C2
:103AE00020913272309133722115310589F0409165
:103AF0003172C90160E070E050E00E94124EE09126
:103B0000AAA1F091ABA1309719F0809188A01995E6
:103B10002091B3A53091B4A52115310541F0409114
:103B2000B2A5C90160E070E050E00E94124E0E9410
:103B30009B1380E00E94861382E0809388A0C9CE08
:103B4000C22FD0E07ECF232B79F5E0914673F09120
:103B50004773808184FF4DC090913C7260913D72AB
:103B600070913E72409185A0509186A0992371F08A
:103B700020E030E0FB01E20FF31FDA01A20FB31FD8
:103B80008C9180832F5F3F4F9217A1F78091307106
:103B90006CE372E70E942E118CE392E70E94991168
:103BA00086E0809388A0C1CEE0914673F091477380
:103BB00080818F7E808380E00E94861390913C728A
:103BC00060913D7270913E72409185A0509186A0A7
:103BD0009923E1F220E030E0FB01E20FF31FDA016C
:103BE000A20FB31F8C9180832F5F3F4F9217A1F7D5
:103BF000CDCF8061808380E00E94861390913C72DB
:103C000060913D7270913E72409185A0509186A066
:103C1000992309F4BBCF20E030E0FA01E20FF31F53
:103C2000DB01A20FB31F8C9180832F5F3F4F921750
:103C3000A1F7ACCF232B09F401CF809139728823EF
:103C400009F447CEE0914673F0914773808185FF78
:103C50001FC09091317260913272709133724091B5
:103C6000B3A55091B4A5992371F020E030E0FB0199
:103C7000E20FF31FDA01A20FB31F8C9180832F5F35
:103C80003F4F9217A1F781E392E70E94B311D6CE7E
:103C90008062808380E00E948613D0CE2091A29F14
:103CA0002F3F09F474C08091A49F8F3F09F46FC027
:103CB0008091A59F882309F46AC0809101468823DA
:103CC00009F465C080912346882309F460C080917F
:103CD000A69F9091A79F892B09F459C08091A89F16
:103CE0009091A99F892B09F452C08091AA9F90912D
:103CF000AB9F892B09F44BC08091AC9F882309F4BA
:103D000046C08091AD9F882309F441C08091AE9F49
:103D10009091AF9FA091B09FB091B19F0097A105E6
:103D2000B105A9F18091B29F882389F18091B39F59
:103D3000882369F18091B49F882349F18091B59FD0
:103D4000882329F18FEF8093B1A2209354412093CF
:103D50004C412093444180914D41820F815080938A
:103D60004E4180915541820F815080935641809100
:103D70004541280F21502093464181E080935041D6
:103D800080934841809340412AE030E002C020E027
:103D900030E0C90108952F923F924F925F926F9247
:103DA0007F928F929F92AF92BF92CF92DF92EF92CB
:103DB000FF920F931F93DF93CF930F920F92CDB784
:103DC000DEB7FC0180913772882329F48091A19E8F
:103DD000833008F470C01092B2428091B3428823BD
:103DE00009F44AC0E0916341F091644180916541DA
:103DF00090916641E817F90709F4C8C08091A19E27
:103E00008F5F8093A19EEC5FFE4F8091AF459091B4
:103E1000B04580839183349780911C438083E091E7
:103E20006341F0916441EF5FFE4F80911D438083B9
:103E3000E0916341F0916441EE5FFE4F8091B342A7
:103E400080831092B342E0916341F0916441EA5F54
:103E5000FE4FE0936341F093644128EAE73CF207A8
:103E600038F085EB95EA8093634190936441FC01BF
:103E7000E0936141F093624180915D4190915E4198
:103E80006EE173E442E052E00E94C6090F900F9089
:103E9000CF91DF911F910F91FF90EF90DF90CF9026
:103EA000BF90AF909F908F907F906F905F904F905A
:103EB0003F902F90089560FD8ECF22E0643072070E
:103EC00008F089CF6115710509F485CF9181809142
:103ED000B242882309F05CC423E0E22EF12CEE0EFE
:103EE000FF1E8B0102501040AA24BB2455249924A4
:103EF00033243394983609F4C5C1903109F40CC2C7
:103F0000923A09F0F7C48BE08093B2420115110593
:103F100009F461CF9BE05EE013C09E3009F45CC100
:103F20009F3009F479C1903109F4DEC1992309F475
:103F300001C1963109F4FEC00115110509F44BCFFA
:103F40008D2DD7014C91E2E0F0E0EE0EFF1E025005
:103F500010409B3011F7242F30E02F773070809184
:103F6000A29F90E08217930721F02F37310509F0C7
:103F70003BC447FDCAC14093BF6E66245093B24212
:103F8000C42E78E0D72E9091B242D3CF8091A19EDB
:103F9000882309F435CF70CF422F50E04F7750700F
:103FA0008091A29F90E08417950721F04F3751052B
:103FB00009F01AC4A0916141B0916241AD01DD20C8
:103FC00009F459C60115110509F405CF9D2D04C04A
:103FD0000115110509F4FFCEF701808142E050E0A0
:103FE000E40EF51E025010408D93915089F74091D8
:103FF000614150916241FA01622F9D2D8191680FBC
:104000009150E1F7DA94AD2DB0E0D3941196A40F5E
:10401000B51F27FDA0C42093BF6E6624FA018081DE
:1040200087FD93C48093CC7344242091CC738091FA
:10403000A29F821709F4ECC33091B1A2231741F07B
:10404000822F90E08755974780935B4190935C4126
:10405000FA017180872C992474FEDDC3809134723B
:10406000281709F415C5E0915B41F0915C41872D5B
:104070008072808340916141509162412091CC7364
:104080003091B1A286FE04C07FE07722552453947C
:104090008DEFD80ED0921C43E3E0DE0E662009F4CB
:1040A000C9C3FA01828180931D43FCEFDF0ED092D9
:1040B0001C4374E0D70E83E0982EE3E0F0E0442048
:1040C00009F4B0C3E40FF51F80818093B245939447
:1040D00080911C43815080931C43E92DF0E04E0FEA
:1040E0005F1F4093AF455093B04511978C91C62EFA
:1040F000C81AC81609F005C63217C9F0922F931BCB
:1041000080914641890F8093464180914E41890FAD
:1041100080934E4180915641980F90935641209341
:10412000534120934B41209343412093B1A2A6E1F8
:10413000A093B24290911D43913408F04CCE20914F
:10414000CC73209334725520A9F1872D8C50823086
:1041500008F4B0C139E0731609F433C244E07416B0
:1041600009F4DAC156E0751609F4D6C17EE0771677
:10417000E9F083E0781609F4F7C1A5E07A1609F4AE
:10418000F3C1BFE07B16B1F4E92FF0E0EE0FFF1FA3
:10419000E75BFC480190F081E02D913408F0D3C139
:1041A0008081882319F4903409F0CDC180E5A82ED0
:1041B00081E4B82E0115110509F40DCED7019C91AB
:1041C0008091B242882309F0E5C2E2E0F0E0EE0E11
:1041D000FF1E025010408ECE47FD0EC14093CC739F
:1041E000F0E4F093B24544249091CC738091A29F67
:1041F000891709F40DC38091B1A2981741F0892F56
:1042000090E08755974780935B4190935C41C40E43
:104210002FE02093B242B7CE642F70E044FD23C05C
:10422000CB0180739070809729F166FDC5C0742E14
:10423000C40ED0921C438091614190916241809361
:10424000AF459093B045A0E1A093B242662009F03B
:104250009ACE872D8C50823008F095CEB0E4B09382
:104260001D4390E163CE9091CC7380913472981786
:1042700009F4ACC1E0915B41F0915C41842F807204
:104280008083D3CF85E08093B2420115110509F4F4
:10429000A2CD96E048E037E00BC08630C9F0873009
:1042A000E9F0883009F478CE0115110509F493CDB1
:1042B000D7012C91E2E0F0E0EE0EFF1E025010401C
:1042C0008091B242853049F79093B242D22EECCF22
:1042D000D21609F080CD3093B242E6CF283609F0ED
:1042E0007ACD4093B242E0CFDA94882309F48BC0B0
:1042F000662009F42DC140931D4380911C438150D9
:1043000080931C43C40E662411CE842F8F77809334
:10431000BF6E6624639432CE3092B242011511050D
:1043200009F459CD91E053E012C0923061F193301D
:1043300009F448C0943009F48EC0992309F4FACEE8
:10434000963109F4F7CE0115110509F444CDF701B2
:10435000408122E030E0E20EF31E02501040913026
:1043600021F7942F9F779093BF6E8091A29F98170B
:1043700019F09F3709F038C232E03093B242C42EB0
:104380009091B242DDCF942F9F779093CC73809120
:10439000A29F981709F43CC28091B1A2981741F0EE
:1043A000892F90E08755974780935B4190935C41BC
:1043B000C40E5093B242E4CF6FE0762E742255249F
:1043C000539436CF642F70E044FF9FC09091CC731C
:1043D00080913472981709F492C1E0915B41F09199
:1043E0005C41842F8072808366FD89C0742EC40E68
:1043F000B4E0B093B242C4CF842F8F778093CC7354
:1044000044244394F1CEE6E1E093B242C41609F0AD
:1044100059C38091B1A22091CC73821709F4B3CD16
:10442000922F981B80914641890F8093464180913D
:104430004E41890F80934E4180915641980F909341
:1044400056412093534120934B4120934341209365
:10445000B1A296E16BCDE6E1E093B242C41609F059
:1044600031C38091B1A22091CC738217C9F0922FF1
:10447000981B80914641890F8093464180914E411F
:10448000890F80934E4180915641980F90935641E9
:104490002093534120934B41209343412093B1A259
:1044A000872D8C50823008F4ABC010921C43909141
:1044B000B24243CF903409F40CC1992309F0B1C042
:1044C0008091ACA2882309F43EC0309187A03323A9
:1044D00009F46CCEA091D2A9B091D3A9AD018C9171
:1044E000813009F487C380E5A82E81E4B82E80913D
:1044F000CBA9882309F05ECE1092CAA95BCEEFE06B
:104500007E2E74225524539472CFCB018073907009
:10451000809709F069CF61CF923009F40AC1E92F81
:10452000F0E0EE0FFF1FE75BFC480190F081E02D0B
:10453000309709F43FCE8081882309F43BCE62E0B6
:104540006093B34237CE98E4A92E91E4B92E32CECF
:10455000442009F45BC04093B24580911C438150D4
:1045600080931C434424CECE913069F78091ADA254
:10457000882349F3A091AF45B091B0458C91853027
:1045800009F4E3C3863008F08EC3813009F00ECE03
:10459000E091A6A1F091A7A1309709F407CECD0133
:1045A00060911C431995019709F000CEA090AF458A
:1045B000B090B045D5018C91873019F083E080939D
:1045C000B34230E4A32E31E4B32EF4CDE0915B414D
:1045D000F0915C41808190E09B01207230708217E5
:1045E000930709F4F3C0809187A0823009F42DC1AC
:1045F0008091BE6E843009F041CE1092BE6E3ECEE8
:10460000F0E4F0931D43F093B2454FCFE091614148
:10461000F0916241E90DF11D408393949091B24273
:1046200071CE9C3309F46AC19B3309F4F0C1913017
:1046300009F45AC2933009F47DC2E92FF0E0EE0F7D
:10464000FF1FE75BFC480190F081E02D309709F4F3
:104650007ACF8081882309F476CFA085B185109721
:1046600029F0AA50BF4F8C91882349F4A285B385C5
:104670001097F1F1AA50BF4F8C918823C9F1309265
:10468000B342A085B185109739F0AA50BF4F8C91E5
:10469000A65FB040882311F4A285B385A250BF4F16
:1046A000ED91FC911197AE5FB0408081813009F4AB
:1046B0006EC350E5A52E51E4B52EA950BF4F8C9185
:1046C000A75FB040882309F075CDAA50BF4F1C9258
:1046D00071CD8091CB73882309F435CF80913573E8
:1046E000882309F0B6C080912772882309F0B1C0F1
:1046F0003092B34260E5A62E61E4B62E5BCDE09128
:104700005B41F0915C41808190E09B0120723070B0
:104710008217930709F425C1809187A0823009F49C
:1047200099C18091BE6E843009F05BCE1092BE6E4E
:1047300058CEE091AF45F091B0458081813009F4C9
:1047400048C1823009F45BC1853009F487C18630E5
:1047500009F030CD80911C43853009F02BCD1582B6
:104760006091AF457091B0456F5F7F4F80E090E4FE
:104770000E94244E009709F01DCD8BEF97E064E076
:1047800070E040E050E40E94BB0B0E94C30C12CDCD
:10479000AA24BB24863109F01ECB963109F01BCB2D
:1047A000A114B10409F417CBB5016E5F7F4F60937C
:1047B000204570932145D50111964C9180915D4122
:1047C00090915E4150E00E946A0A05CB809187A0DB
:1047D000823009F43CC18091BE6E843009F04ECD28
:1047E00082E08093BE6E4ACD0115110509F4F3CA2B
:1047F00081E08093B2420230110509F4ECCAF7015E
:10480000828186FFE8CA1092B3451092B445E3CA8C
:1048100010923A72E0CAC40180739070809709F0D8
:1048200031CC21CC7DE0771609F059CC80E480931F
:10483000B24555CC8DE0781619F4E0E4E0931D43C1
:10484000F2E09F2EE2E0F0E03ACC34E0309387A033
:1048500015CD3092B34280913573882309F48FC00F
:1048600080915F41882309F48AC0E0913D73F09103
:104870003E738081813009F43FC240E5A42E41E4BB
:10488000B42E30E080913673882311F41092357382
:10489000332309F48FCC222009F4CAC1F5018681A3
:1048A000821751F02683E381F0E03696EA0DFB1D76
:1048B000281B8081820F8083809187A090E0837085
:1048C0009070892B09F408C2D50118969C9118970D
:1048D000963009F46FCC86E018968C93189713964F
:1048E000EC91F0E03696EA0DFB1D891B9081980F44
:1048F000908360CC9C3D09F06ECA85CF8091387260
:10490000882309F420CE80911F8A882309F4F0CEF1
:104910008091BE6E823019F4E4E0E093BE6E309276
:10492000B342E091278AF091288A8081813009F48E
:104930001CC2B0E5AB2EB1E4BB2E8091208A882347
:1049400009F038CC10921F8A35CC8F778093CC73C6
:10495000442443946ACB2F772093BF6E66246394DC
:104960005DCB809187A0823009F487C18091BE6EB3
:10497000843009F036CDA2E0A093BE6E32CD909186
:10498000B06F992309F074C080914573882321F496
:10499000809187A0882329F080915F41882309F0C6
:1049A00067C0809148738F5F809348738A3020F08E
:1049B000309245731092487338E5A32E31E4B32E3C
:1049C00030E080912872882309F062CF109227721C
:1049D0005FCF80911C43833009F0ECCB2091ACA1D8
:1049E0003091ADA12115310509F4E4CB8281898391
:1049F00081818A8389819A81F9011995DBCB809124
:104A00001C43813009F0D6CB9093B342D3CB809135
:104A10003B72882309F497CD8091989F882309F4ED
:104A200067CE3092B342E091A09FF091A19F808128
:104A3000813009F478C1A0E5AA2EA1E4BA2E8091B4
:104A4000999F882309F0B6CB1092989FB3CB3092F0
:104A500087A014CC84E0809387A0C3CC818181306F
:104A600009F0A8CB80911C43823009F0A3CB8DCEF6
:104A700090934573E0912F72F09130728081813074
:104A800009F4FEC090E5A92E91E4B92E30E099CF4B
:104A9000E0915B41F0915C41808190E09401207253
:104AA00030708217930709F4F0C0809187A082309C
:104AB00009F435C18091BE6E843009F0D8CA1092D5
:104AC000BE6ED5CA9091B1A28091CC73981709F4AB
:104AD00082C99093CC73892F90E087559747809334
:104AE0005B4190935C4177C98091ADA2882309F422
:104AF0002ACDE091AF45F091B0458081882309F03F
:104B000022CD80917FA1882309F450CBE09187A129
:104B1000F09188A18081813009F47DC1F0E5AF2E4C
:104B2000F1E4BF2E809180A1882309F043CB10923D
:104B30007FA140CBE0919CA1F0919DA1309709F419
:104B400035CB8DE295E460E870E01995019709F0A6
:104B50002DCB1092AC45ADE2B5E40D900020E9F705
:104B6000AE52B54498E6909324458A2F8B5F80938C
:104B7000254580932645909327458091CC73806886
:104B8000809328458091A29F80688093294588E082
:104B900080932A458EE380932B4583E080932C45B8
:104BA000FD01EE5DFA4B138626E1258780912545B0
:104BB000882381F0E8E2F5E440E050E08150282FBE
:104BC00030E0275D3A4B8191480F511DE217F30702
:104BD000D1F7842FAE5DBA4B1C968C9380912545FE
:104BE0008A5F8093234530922245E2E2AE2EE5E4CF
:104BF000BE2EE0CA16968C911697922F9068891750
:104C000081F016969C9316971396EC911397F0E00B
:104C10003696EA0FFB1F981B8081980F9083309186
:104C200087A030FF03C0B2E0B09387A05A015FCCE9
:104C3000D50113969C911397921751F013962C93CC
:104C4000139716968C911697280F291B16962C935E
:104C5000809187A090E083709070892B59F1F501C5
:104C60009581963009F4A6CA86E0858386818A5F9D
:104C7000891B86839FCA622FCCC9309287A0B1CB93
:104C80005F012090297238E09CCE809187A082300D
:104C900009F468C08091BE6E843009F0E8C932E042
:104CA0003093BE6EE4C9873009F485C0813809F0BD
:104CB0007DCA6ECCD50115969C911597931709F472
:104CC00079CA15963C93159716968C911697380FBE
:104CD000391B16963C936ECAF5018085831709F43B
:104CE00069CA3087E381F0E03696EA0DFB1D381B78
:104CF0008081830F80835ECA5F01209037733AE022
:104D0000C1CD321709F467C83093CC73832F90E07C
:104D10008755974780935B4190935C415CC824E042
:104D2000209387A0A4C95F018681922F906889177C
:104D300009F485CE9683E381F0E03696EA0DFB1DFB
:104D4000981B8081980F90837ACE11968C91823037
:104D500009F02CCA80911C43823009F027CA0E94B6
:104D6000C30C24CA309287A082C95F018681922F2A
:104D70009068891709F4E1CD9683E381F0E03696D7
:104D8000EA0DFB1D981B8081980F9083D6CD5F01A3
:104D90008281883609F451C0823A09F08ECC838131
:104DA000922F9068891709F488CC9383981B868585
:104DB000890F868782CCE0919AA1F0919BA13097D0
:104DC00009F4F4C91995BC01009709F4EFC9DC0195
:104DD0000D900020E9F71197A81BB90B80911C4397
:104DE000282F30E0C90101978A179B0708F4DEC914
:104DF000E091AF45F091B045E20FF31F1082A09013
:104E0000AF45B090B045C50101960E942D4E009768
:104E100009F0D0CBCBC95F018681922F90688917AA
:104E200009F480CE9683E381F0E03696EA0DFB1D0F
:104E3000981B8081980F908375CE8681922F906801
:104E4000891709F43ACC9683E381F0E03696EA0DAF
:104E5000FB1D981B8081980F90832FCC6F927F92BF
:104E60008F929F92AF92BF92DF92EF92FF920F9339
:104E70001F93CF93DF9380916041882309F065C130
:104E800084E690E08093B4429093B5420E94440D32
:104E90006093B6427093B7428093B8429093B94200
:104EA000C4E6D0E050EAA52E58E0B52E40EA642EC4
:104EB00049E0742E35EB832E35EA932E40C0E09105
:104EC00094A1F09195A1309729F080915D41909146
:104ED0005E4119958091480686FFE0C0C093B442B8
:104EE000D093B54221E030E02E0D3F1D2093B34515
:104EF0003093B445809187A0843009F45BC0E09181
:104F00008AA1F0918BA1309719F0809188A0199512
:104F1000809188A08150863020F48091B0A28130A9
:104F200011F00E94201680914273823009F44FC024
:104F30001092BA428091A19E882309F069C08091A5
:104F40003A728A3009F09BC00E94440D9B01AC016B
:104F50008091B6429091B742A091B842B091B942C7
:104F600079018A01E81AF90A0A0B1B0B41F0209318
:104F7000B6423093B7424093B8425093B9420E9430
:104F8000C10C2091B3453091B4458091B4429091C9
:104F9000B5428217930708F492CF2115310509F025
:104FA000A3CF80911A4390911B438093B442909376
:104FB000B5429ACFE091AEA1F091AFA1309721F028
:104FC0001995019709F09BCF109287A098CF8091F7
:104FD000357290913672009709F4AACF2091BA42A7
:104FE0002E0D2093BA422A3008F4A4CF2A502093E1
:104FF000BA420A978093357290933672892B09F0E2
:1050000099CF0E9420168091A19E882309F497CF02
:105010001092B3451092B4458FB7F894A0916541B2
:10502000B09166418FBFAE5FBE4F8C91A250B14030
:10503000823009F452C0813009F465C0833009F42C
:1050400073C02FB7F89480916541909166418A5F53
:105050009E4F8093654190936641875C984A20F00B
:1050600080926541909266418091A19E815080938B
:10507000A19E2FBF80913A728A3009F465CF90E0EB
:10508000DF91CF911F910F91FF90EF90DF90BF9034
:10509000AF909F908F907F906F900895DFB6F894B7
:1050A00080915D4190915E410E94B10980915D4186
:1050B00090915E41805A984009F1A0925D41B09272
:1050C0005E41DFBE80915D4190915E416EE173E48F
:1050D00042E052E00E94C60901CFAC5FBE4F6D9125
:1050E0007C911197A450B140FD01E050FF4FAF5F9C
:1050F000BE4F8C9140810E94611CA3CF60925D41A4
:1051000070925E41DECFAC5FBE4F6D917C91119786
:10511000A450B140FD01E050FF4FAF5FBE4F8C91F6
:1051200040810E9491168DCFAC5FBE4F6D917C91F6
:105130001197A450B140FD01E050FF4FAF5FBE4F4B
:105140008C9140810E9414117CCF1092604180911B
:105150005D4190915E416EE173E442E052E00E9455
:10516000C6098ECE90913A728091D4A9882371F4A9
:105170009923A1F09A30E1F70E942E2780933A728A
:1051800090913A728091D4A9882391F30E94662D60
:105190000E94F5281092D4A910923A720E944E1ED5
:1051A00080933A72DFCFDA01823019F082E08C937B
:1051B0000895613468F4E62FF0E0EE0FFF1FE75B1F
:1051C000FC480190F081E02D8081882319F481E072
:1051D0008C93089580E38683858384838383108200
:1051E0001C92862F0E94CF2C08951F93CF93DF939C
:1051F0008CE291E08093437390934473109282A069
:10520000109283A01092AEA21092AFA284E690E01A
:105210008093C8A89093C9A8C9E4D3E710E0888117
:105220009981892B19F0812F0E94CF2C22961F5F24
:105230001134A9F71092ACA21092ADA210923B7259
:10524000109238721092CB738FE78093347280E0A3
:1052500090E031E020E2FC01E755F7473083FC01A4
:10526000E055FF48208301968F379105A1F7DF9124
:10527000CF911F910895EF92FF920F931F93CF93B9
:10528000DF93F42EE22ED8011C92823049F082E0A6
:105290008C93DF91CF911F910F91FF90EF90089524
:1052A000613470F4C62FD0E0CC0FDD1FC75BDC4843
:1052B000E881F981309761F08081882351F381E0A2
:1052C0008C93DF91CF911F910F91FF90EF900895F4
:1052D0000E944C2CFC0188839983F182E881F9813A
:1052E000E782E881F9818FEF8283E881F98180E3A9
:1052F00084838383E881F98180E186838583E881E3
:10530000F98181E08083088119810E948D2CF80148
:1053100080879187E881F981008511850A501F4FA8
:10532000F80110820B5F1F4FF801108212928F015B
:105330000E94AE2C0E5F1F4FF80180839183E8819D
:10534000F981008511850E94AE2C02501F4FF80193
:1053500080839183E881F9810084F185E02DE45018
:10536000FF4F0190F081E02D1082E881F9810084E7
:10537000F185E02DE250FF4F0190F081E02D108289
:10538000088119810E948D2CF80182879387E8811A
:10539000F981028513850A501F4FF80110820B5FB7
:1053A0001F4FF801108212928F010E94AE2C0E5FE7
:1053B0001F4FF80180839183E881F981028513856D
:1053C0000E94AE2C02501F4FF80180839183E88128
:1053D000F9810284F385E02DE450FF4F0190F081C4
:1053E000E02D1082E881F9810284F385E02DE250FE
:1053F000FF4F0190F081E02D1082E881F98116863F
:1054000017861486158645CF2F923F924F925F9252
:105410006F927F928F929F92AF92BF92CF92DF92C4
:10542000EF92FF920F931F93CF93DF93E62FA42E5B
:1054300039017801D8011C928230A9F082E08C9366
:10544000DF91CF911F910F91FF90EF90DF90CF9060
:10545000BF90AF909F908F907F906F905F904F9094
:105460003F902F900895613478F5D9018D916D01A9
:1054700090E0019763E070E00E946E4DEB016115D2
:10548000710509F451C0D3011196BC90B3E0BB156E
:1054900010F146010894811C911C2E2E3324220CFD
:1054A000331CF101E75BFC48008111812F010115DC
:1054B000110509F493C0F8018081882381F081E00F
:1054C000D7018C93BDCF82E0F7018083B9CF8031C3
:1054D00011F08032F1F482E0D7018C93B1CFF40166
:1054E0008191B2E0BB1699F3BB1698F093E0B91620
:1054F00099F0D7018C91882309F0A2CF2197E9F088
:10550000B08083E08B1538F34F010894811C911C07
:10551000CECFF4013596EDCF8031A9F2803299F2E9
:105520008081E80FF11DE5CF2E2E3324220C331C91
:10553000F101E75BFC4800811181F801A182D301F0
:105540008C9190E0019763E070E00E946E4D9B01AA
:1055500061157105C9F1E101C75BDC480BC0E88149
:10556000F981938365E0C62ED12CCA0EDB1E215033
:10557000304051F1D6018D91F60191816D01089471
:10558000C11CD11C813071F0813048F3823099F018
:10559000833069F7E881F981968311968C91C80E62
:1055A000D11CE5CFE881F981948355E0C52ED12C3B
:1055B000CA0EDB1EDCCFE881F981958345E0C42E5D
:1055C000D12CCA0EDB1ED3CF89E493E7280E391EF7
:1055D000D101ED91FC9181E0808332CF0E944C2C6F
:1055E000FC01D2018D939C930097B9F11082D201F6
:1055F000ED91FC911197A182ED91FC911197178289
:10560000ED91FC91BFEFB283D201ED91FC91B0E33B
:10561000B483B383D201ED91FC91B0E1B683B5833D
:10562000F201008111810E946C2CD8011C968D938F
:105630009C931D97F201008111810E946C2CD8016E
:105640001E968D939C931F97D201ED91FC9112862B
:105650001386108611868F012ECF81E0F70180839B
:105660002ACFDF92EF92FF920F931F93CF93DF9396
:10567000EB018881882309F4CEC003E216E4A2E29C
:10568000DA2EFEEDEF2EFFEFFF2EE00EF11E1B8255
:1056900090E0FC013197E032F10570F091E0249642
:1056A00088818823A1F79B83DF91CF911F910F9170
:1056B000FF90EF90DF900895E650FF4FEE0FFF1F31
:1056C0000590F491E02D1994E981FA81808180930D
:1056D000B59F90E0E4CFE981FA8180818093B49F07
:1056E00090E0DDCFE981FA8180818093B39F90E0E3
:1056F000D6CFE981FA8180818093B29F90E0CFCFAD
:10570000E981FA8180819181A281B3818093AE9FEA
:105710009093AF9FA093B09FB093B19F90E0BFCF05
:10572000E981FA8180818093AD9F90E0B8CFE981D3
:10573000FA8180818093AC9F90E0B1CFE981FA81BA
:10574000808191818093AA9F9093AB9F90E0A7CF97
:10575000E981FA81808191818093A89F9093A99F8C
:1057600090E09DCFE981FA81808191818093A69F0D
:105770009093A79F90E093CFE981FA814081842F95
:1057800090E082970CF443C0E2E2F0E0D8018D2D66
:105790001D928A95E9F769817A81C801AF010E945B
:1057A000094E90E07CCFE981FA814081842F90E01E
:1057B00082974CF1E2E2F0E0D7018D2D1D928A959F
:1057C000E9F769817A81C701AF010E94094E90E033
:1057D00066CFE981FA8180818093A59F90E05FCFB9
:1057E000E981FA8180818093A49F90E058CFE9817C
:1057F000FA8180818093A29FE981FA8180818093E0
:10580000A39F90E04CCF4F5FE42FF0E0D5CF4F5FE8
:10581000E42FF0E0BBCF90E046CFCF93DF93EB01D6
:10582000882329F082E08883DF91CF91089581E079
:105830008093D4A90E94662D0E94F5281092D4A9C5
:1058400010923A721882DF91CF9108950E94550903
:105850008AE891EA0E941C2E0E940B0D0E94BE0D48
:10586000E0918CA1F0918DA1309709F0199587E80E
:10587000E0EAF0E0828378940E94A90CE09192A182
:10588000F09193A1309709F019950E94D90C0E94CC
:105890006E2D80E090E008952091C1423091C24287
:1058A000E5EFF7E802C02F5F3F4F8081882349F082
:1058B000729688E8E93AF807B1F720E030E0C901CC
:1058C000089581E080832093C1423093C2429F01BA
:1058D0002E5F3F4FC90108952091BF423091C042D1
:1058E000E9E2FAE802C02F5F3F4F8081882351F040
:1058F000EA5FFE4F8EE9E13AF807A9F720E030E0D1
:10590000C901089581E080832093BF423093C04253
:105910009F012E5F3F4FC90108952091BD423091F4
:10592000BE42EDECF3E702C02F5F3F4F808188233A
:1059300051F0EE5FFE4F87E8E53FF807A9F720E05A
:1059400030E0C901089581E080832093BD42309307
:10595000BE429F012E5F3F4FC90108952091BB4277
:105960003091BC42E6E4F6E408C0ED5FFE4F8EE6FF
:10597000EE3BF80781F02F5F3F4F80818823A9F726
:1059800081E080832093BB423093BC429F012E5F15
:105990003F4FC901089520E030E0C9010895CF9339
:1059A000DF9390E0880F991F9C01275B3C48D90149
:1059B000ED91FC91309709F486C0A085B1851097D0
:1059C00069F1A450BF4FCD91DC911197AC5FB0400D
:1059D000209739F022971882D901ED91FC91A0858A
:1059E000B185A250BF4FCD91DC911197AE5FB04011
:1059F000209751F022971882FC01E75BFC48019048
:105A0000F081E02DA085B185109741F012971C928E
:105A1000FC01E75BFC480190F081E02DA285B38595
:105A2000109781F1A450BF4FCD91DC911197AC5FDD
:105A3000B040209751F022971882FC01E75BFC48A8
:105A40000190F081E02DA285B385A250BF4FCD918A
:105A5000DC911197AE5FB040209751F022971882E9
:105A6000FC01E75BFC480190F081E02DA285B38545
:105A7000109741F012971C92FC01E75BFC480190E3
:105A8000F081E02DA485B585109741F012971C9206
:105A9000FC01E75BFC480190F081E02DA685B7850D
:105AA000109741F012971C92FC01E75BFC480190B3
:105AB000F081E02D309711F032971082875B9C487F
:105AC000FC0110821182DF91CF91089581E08093D3
:105AD000B16F1092B26F1092B36F08950F931F932E
